{
  "_format": "hh-sol-artifact-1",
  "contractName": "Escrow",
  "sourceName": "contracts/Escrow.sol",
  "abi": [
    {
      "inputs": [
        {
          "internalType": "uint256",
          "name": "_productId",
          "type": "uint256"
        },
        {
          "internalType": "address",
          "name": "_buyer",
          "type": "address"
        },
        {
          "internalType": "address",
          "name": "_seller",
          "type": "address"
        }
      ],
      "stateMutability": "payable",
      "type": "constructor"
    },
    {
      "inputs": [],
      "name": "amount",
      "outputs": [
        {
          "internalType": "uint256",
          "name": "",
          "type": "uint256"
        }
      ],
      "stateMutability": "view",
      "type": "function"
    },
    {
      "inputs": [],
      "name": "buyer",
      "outputs": [
        {
          "internalType": "address",
          "name": "",
          "type": "address"
        }
      ],
      "stateMutability": "view",
      "type": "function"
    },
    {
      "inputs": [],
      "name": "escrowInfo",
      "outputs": [
        {
          "internalType": "address",
          "name": "",
          "type": "address"
        },
        {
          "internalType": "address",
          "name": "",
          "type": "address"
        },
        {
          "internalType": "bool",
          "name": "",
          "type": "bool"
        }
      ],
      "stateMutability": "view",
      "type": "function"
    },
    {
      "inputs": [],
      "name": "fundsDisbursed",
      "outputs": [
        {
          "internalType": "bool",
          "name": "",
          "type": "bool"
        }
      ],
      "stateMutability": "view",
      "type": "function"
    },
    {
      "inputs": [],
      "name": "productId",
      "outputs": [
        {
          "internalType": "uint256",
          "name": "",
          "type": "uint256"
        }
      ],
      "stateMutability": "view",
      "type": "function"
    },
    {
      "inputs": [],
      "name": "refundToBuyer",
      "outputs": [
        {
          "internalType": "bool",
          "name": "",
          "type": "bool"
        }
      ],
      "stateMutability": "nonpayable",
      "type": "function"
    },
    {
      "inputs": [],
      "name": "releaseToSeller",
      "outputs": [
        {
          "internalType": "bool",
          "name": "",
          "type": "bool"
        }
      ],
      "stateMutability": "nonpayable",
      "type": "function"
    },
    {
      "inputs": [],
      "name": "seller",
      "outputs": [
        {
          "internalType": "address",
          "name": "",
          "type": "address"
        }
      ],
      "stateMutability": "view",
      "type": "function"
    }
  ],
  "bytecode": "0x60806040526040516106c63803806106c683398181016040528101906100259190610171565b8260008190555081600160006101000a81548173ffffffffffffffffffffffffffffffffffffffff021916908373ffffffffffffffffffffffffffffffffffffffff16021790555080600260006101000a81548173ffffffffffffffffffffffffffffffffffffffff021916908373ffffffffffffffffffffffffffffffffffffffff160217905550346003819055506000600460006101000a81548160ff0219169083151502179055505050506101c4565b600080fd5b6000819050919050565b6100f0816100dd565b81146100fb57600080fd5b50565b60008151905061010d816100e7565b92915050565b600073ffffffffffffffffffffffffffffffffffffffff82169050919050565b600061013e82610113565b9050919050565b61014e81610133565b811461015957600080fd5b50565b60008151905061016b81610145565b92915050565b60008060006060848603121561018a576101896100d8565b5b6000610198868287016100fe565b93505060206101a98682870161015c565b92505060406101ba8682870161015c565b9150509250925092565b6104f3806101d36000396000f3fe608060405234801561001057600080fd5b50600436106100885760003560e01c8063aa8c217c1161005b578063aa8c217c14610105578063c5ce391114610123578063d1a52e3014610141578063f3d259041461015f57610088565b806308551a531461008d5780634bd7d081146100ab5780637150d8ae146100c9578063892a0e42146100e7575b600080fd5b61009561017f565b6040516100a29190610401565b60405180910390f35b6100b36101a5565b6040516100c09190610437565b60405180910390f35b6100d161025d565b6040516100de9190610401565b60405180910390f35b6100ef610283565b6040516100fc9190610437565b60405180910390f35b61010d61033b565b60405161011a919061046b565b60405180910390f35b61012b610341565b604051610138919061046b565b60405180910390f35b610149610347565b6040516101569190610437565b60405180910390f35b61016761035a565b60405161017693929190610486565b60405180910390f35b600260009054906101000a900473ffffffffffffffffffffffffffffffffffffffff1681565b6000600460009054906101000a900460ff16156101c157600080fd5b6003544710156101d057600080fd5b600160009054906101000a900473ffffffffffffffffffffffffffffffffffffffff1673ffffffffffffffffffffffffffffffffffffffff166108fc6003549081150290604051600060405180830381858888f1935050505015801561023a573d6000803e3d6000fd5b506001600460006101000a81548160ff0219169083151502179055506001905090565b600160009054906101000a900473ffffffffffffffffffffffffffffffffffffffff1681565b6000600460009054906101000a900460ff161561029f57600080fd5b6003544710156102ae57600080fd5b600260009054906101000a900473ffffffffffffffffffffffffffffffffffffffff1673ffffffffffffffffffffffffffffffffffffffff166108fc6003549081150290604051600060405180830381858888f19350505050158015610318573d6000803e3d6000fd5b506001600460006101000a81548160ff0219169083151502179055506001905090565b60035481565b60005481565b600460009054906101000a900460ff1681565b6000806000600160009054906101000a900473ffffffffffffffffffffffffffffffffffffffff16600260009054906101000a900473ffffffffffffffffffffffffffffffffffffffff16600460009054906101000a900460ff16925092509250909192565b600073ffffffffffffffffffffffffffffffffffffffff82169050919050565b60006103eb826103c0565b9050919050565b6103fb816103e0565b82525050565b600060208201905061041660008301846103f2565b92915050565b60008115159050919050565b6104318161041c565b82525050565b600060208201905061044c6000830184610428565b92915050565b6000819050919050565b61046581610452565b82525050565b6000602082019050610480600083018461045c565b92915050565b600060608201905061049b60008301866103f2565b6104a860208301856103f2565b6104b56040830184610428565b94935050505056fea26469706673582212200a8daa8205a04349e2bbd77e5649b69f0b4f6eced08f4c50535268470895535664736f6c63430008130033",
  "linkReferences": {},
  "deployedLinkReferences": {}
}