{
  "_format": "hh-sol-artifact-1",
  "contractName": "Marketplace",
  "sourceName": "contracts/Marketplace.sol",
  "abi": [
    {
      "inputs": [],
      "stateMutability": "nonpayable",
      "type": "constructor"
    },
    {
      "anonymous": false,
      "inputs": [
        {
          "indexed": false,
          "internalType": "address",
          "name": "_bidder",
          "type": "address"
        },
        {
          "indexed": false,
          "internalType": "uint256",
          "name": "_productId",
          "type": "uint256"
        },
        {
          "indexed": false,
          "internalType": "uint256",
          "name": "_amount",
          "type": "uint256"
        }
      ],
      "name": "NewBid",
      "type": "event"
    },
    {
      "anonymous": false,
      "inputs": [
        {
          "indexed": false,
          "internalType": "uint256",
          "name": "_productId",
          "type": "uint256"
        },
        {
          "indexed": false,
          "internalType": "string",
          "name": "_name",
          "type": "string"
        },
        {
          "indexed": false,
          "internalType": "string",
          "name": "_category",
          "type": "string"
        },
        {
          "indexed": false,
          "internalType": "uint256",
          "name": "_startPrice",
          "type": "uint256"
        },
        {
          "indexed": false,
          "internalType": "uint256",
          "name": "_productCondition",
          "type": "uint256"
        }
      ],
      "name": "NewProduct",
      "type": "event"
    },
    {
      "inputs": [
        {
          "internalType": "string",
          "name": "_name",
          "type": "string"
        },
        {
          "internalType": "string",
          "name": "_category",
          "type": "string"
        },
        {
          "internalType": "uint256",
          "name": "_startPrice",
          "type": "uint256"
        },
        {
          "internalType": "uint256",
          "name": "_productCondition",
          "type": "uint256"
        }
      ],
      "name": "addProduct",
      "outputs": [],
      "stateMutability": "nonpayable",
      "type": "function"
    },
    {
      "inputs": [
        {
          "internalType": "uint256",
          "name": "_productId",
          "type": "uint256"
        },
        {
          "internalType": "uint256",
          "name": "_amount",
          "type": "uint256"
        }
      ],
      "name": "bid",
      "outputs": [
        {
          "internalType": "bool",
          "name": "",
          "type": "bool"
        }
      ],
      "stateMutability": "nonpayable",
      "type": "function"
    },
    {
      "inputs": [
        {
          "internalType": "uint256",
          "name": "_productId",
          "type": "uint256"
        }
      ],
      "name": "closeAuction",
      "outputs": [],
      "stateMutability": "nonpayable",
      "type": "function"
    },
    {
      "inputs": [
        {
          "internalType": "uint256",
          "name": "_productId",
          "type": "uint256"
        }
      ],
      "name": "escrowAddressForProduct",
      "outputs": [
        {
          "internalType": "address",
          "name": "",
          "type": "address"
        }
      ],
      "stateMutability": "view",
      "type": "function"
    },
    {
      "inputs": [
        {
          "internalType": "uint256",
          "name": "_productId",
          "type": "uint256"
        }
      ],
      "name": "escrowInfo",
      "outputs": [
        {
          "internalType": "address",
          "name": "",
          "type": "address"
        },
        {
          "internalType": "address",
          "name": "",
          "type": "address"
        },
        {
          "internalType": "bool",
          "name": "",
          "type": "bool"
        }
      ],
      "stateMutability": "view",
      "type": "function"
    },
    {
      "inputs": [
        {
          "internalType": "uint256",
          "name": "_productId",
          "type": "uint256"
        }
      ],
      "name": "getProduct",
      "outputs": [
        {
          "internalType": "uint256",
          "name": "",
          "type": "uint256"
        },
        {
          "internalType": "string",
          "name": "",
          "type": "string"
        },
        {
          "internalType": "string",
          "name": "",
          "type": "string"
        },
        {
          "internalType": "uint256",
          "name": "",
          "type": "uint256"
        },
        {
          "internalType": "enum Marketplace.ProductStatus",
          "name": "",
          "type": "uint8"
        },
        {
          "internalType": "enum Marketplace.ProductCondition",
          "name": "",
          "type": "uint8"
        },
        {
          "internalType": "uint256",
          "name": "",
          "type": "uint256"
        },
        {
          "internalType": "uint256",
          "name": "",
          "type": "uint256"
        }
      ],
      "stateMutability": "view",
      "type": "function"
    },
    {
      "inputs": [
        {
          "internalType": "uint256",
          "name": "_productId",
          "type": "uint256"
        }
      ],
      "name": "highestBidderInfo",
      "outputs": [
        {
          "internalType": "address",
          "name": "",
          "type": "address"
        },
        {
          "internalType": "uint256",
          "name": "",
          "type": "uint256"
        }
      ],
      "stateMutability": "view",
      "type": "function"
    },
    {
      "inputs": [
        {
          "internalType": "uint256",
          "name": "",
          "type": "uint256"
        }
      ],
      "name": "productEscrow",
      "outputs": [
        {
          "internalType": "address",
          "name": "",
          "type": "address"
        }
      ],
      "stateMutability": "view",
      "type": "function"
    },
    {
      "inputs": [
        {
          "internalType": "uint256",
          "name": "",
          "type": "uint256"
        }
      ],
      "name": "productIdInStore",
      "outputs": [
        {
          "internalType": "address",
          "name": "",
          "type": "address"
        }
      ],
      "stateMutability": "view",
      "type": "function"
    },
    {
      "inputs": [],
      "name": "productIndex",
      "outputs": [
        {
          "internalType": "uint256",
          "name": "",
          "type": "uint256"
        }
      ],
      "stateMutability": "view",
      "type": "function"
    },
    {
      "inputs": [
        {
          "internalType": "uint256",
          "name": "_productId",
          "type": "uint256"
        }
      ],
      "name": "refundToBuyer",
      "outputs": [],
      "stateMutability": "nonpayable",
      "type": "function"
    },
    {
      "inputs": [
        {
          "internalType": "uint256",
          "name": "_productId",
          "type": "uint256"
        }
      ],
      "name": "releaseToSeller",
      "outputs": [],
      "stateMutability": "nonpayable",
      "type": "function"
    },
    {
      "inputs": [
        {
          "internalType": "uint256",
          "name": "_productId",
          "type": "uint256"
        }
      ],
      "name": "sendToEscrow",
      "outputs": [],
      "stateMutability": "payable",
      "type": "function"
    },
    {
      "inputs": [
        {
          "internalType": "address",
          "name": "",
          "type": "address"
        },
        {
          "internalType": "uint256",
          "name": "",
          "type": "uint256"
        }
      ],
      "name": "stores",
      "outputs": [
        {
          "internalType": "uint256",
          "name": "id",
          "type": "uint256"
        },
        {
          "internalType": "string",
          "name": "name",
          "type": "string"
        },
        {
          "internalType": "string",
          "name": "category",
          "type": "string"
        },
        {
          "internalType": "uint256",
          "name": "startPrice",
          "type": "uint256"
        },
        {
          "internalType": "address",
          "name": "highestBidder",
          "type": "address"
        },
        {
          "internalType": "uint256",
          "name": "highestBid",
          "type": "uint256"
        },
        {
          "internalType": "uint256",
          "name": "totalBids",
          "type": "uint256"
        },
        {
          "internalType": "enum Marketplace.ProductStatus",
          "name": "status",
          "type": "uint8"
        },
        {
          "internalType": "enum Marketplace.ProductCondition",
          "name": "condition",
          "type": "uint8"
        }
      ],
      "stateMutability": "view",
      "type": "function"
    },
    {
      "inputs": [
        {
          "internalType": "uint256",
          "name": "_productId",
          "type": "uint256"
        }
      ],
      "name": "totalBids",
      "outputs": [
        {
          "internalType": "uint256",
          "name": "",
          "type": "uint256"
        }
      ],
      "stateMutability": "view",
      "type": "function"
    }
  ],
  "bytecode": "0x608060405234801561001057600080fd5b5060008081905550612bdf806100276000396000f3fe608060405260043610620000fe5760003560e01c8063835605251162000097578063c0bc03c81162000061578063c0bc03c81462000384578063c897d5a614620003c8578063ce818ea914620003f8578063debe4173146200043d57620000fe565b80638356052514620002a5578063b4050fc814620002eb578063b9db15b41462000319578063baf2e3ad146200036457620000fe565b806333e2331111620000d957806333e2331114620001a35780634389754a14620001d157806354121c741462000215578063598647f8146200026157620000fe565b806301cecd141462000103578063236ed8f3146200013157806328e3d190146200015f575b600080fd5b3480156200011057600080fd5b506200012f60048036038101906200012991906200196c565b62000481565b005b3480156200013e57600080fd5b506200015d600480360381019062000157919062001a1c565b6200063e565b005b3480156200016c57600080fd5b506200018b600480360381019062000185919062001a1c565b620007f2565b6040516200019a919062001a5f565b60405180910390f35b348015620001b057600080fd5b50620001cf6004803603810190620001c9919062001a1c565b62000887565b005b348015620001de57600080fd5b50620001fd6004803603810190620001f7919062001a1c565b62000ac9565b6040516200020c919062001ac1565b60405180910390f35b3480156200022257600080fd5b506200024160048036038101906200023b919062001b0f565b62000b06565b604051620002589998979695949392919062001cb0565b60405180910390f35b3480156200026e57600080fd5b506200028d600480360381019062000287919062001d5d565b62000cbb565b6040516200029c919062001dc1565b60405180910390f35b348015620002b257600080fd5b50620002d16004803603810190620002cb919062001a1c565b62000f88565b604051620002e29392919062001dde565b60405180910390f35b348015620002f857600080fd5b5062000317600480360381019062000311919062001a1c565b6200103f565b005b3480156200032657600080fd5b506200034560048036038101906200033f919062001a1c565b6200120e565b6040516200035b98979695949392919062001e1b565b60405180910390f35b6200038260048036038101906200037c919062001a1c565b62001425565b005b3480156200039157600080fd5b50620003b06004803603810190620003aa919062001a1c565b62001683565b604051620003bf919062001ac1565b60405180910390f35b348015620003d557600080fd5b50620003e0620016b6565b604051620003ef919062001a5f565b60405180910390f35b3480156200040557600080fd5b506200042460048036038101906200041e919062001a1c565b620016bc565b6040516200043492919062001eb7565b60405180910390f35b3480156200044a57600080fd5b5062000469600480360381019062000463919062001a1c565b6200177a565b60405162000478919062001ac1565b60405180910390f35b600160008082825462000495919062001f13565b925050819055506000600260003373ffffffffffffffffffffffffffffffffffffffff1673ffffffffffffffffffffffffffffffffffffffff16815260200190815260200160002060008054815260200190815260200160002090506000548160000181905550848160010190816200050f919062002184565b508381600201908162000523919062002184565b5082816003018190555060008160070160006101000a81548160ff0219169083600381111562000558576200055762001bdf565b5b021790555081600181111562000573576200057262001bdf565b5b8160070160016101000a81548160ff021916908360018111156200059c576200059b62001bdf565b5b021790555033600360008054815260200190815260200160002060006101000a81548173ffffffffffffffffffffffffffffffffffffffff021916908373ffffffffffffffffffffffffffffffffffffffff1602179055507fc86b920148e151a78e4a627284a763302c966579a89be8494ba9562ac1f61b7b600054868686866040516200062f9594939291906200226b565b60405180910390a15050505050565b6000600260006003600085815260200190815260200160002060009054906101000a900473ffffffffffffffffffffffffffffffffffffffff1673ffffffffffffffffffffffffffffffffffffffff1673ffffffffffffffffffffffffffffffffffffffff168152602001908152602001600020600083815260200190815260200160002090503373ffffffffffffffffffffffffffffffffffffffff166003600084815260200190815260200160002060009054906101000a900473ffffffffffffffffffffffffffffffffffffffff1673ffffffffffffffffffffffffffffffffffffffff16146200073157600080fd5b6000600381111562000748576200074762001bdf565b5b8160070160009054906101000a900460ff1660038111156200076f576200076e62001bdf565b5b146200077a57600080fd5b6000816006015403620007bd5760038160070160006101000a81548160ff02191690836003811115620007b257620007b162001bdf565b5b0217905550620007ee565b60028160070160006101000a81548160ff02191690836003811115620007e857620007e762001bdf565b5b02179055505b5050565b600080600260006003600086815260200190815260200160002060009054906101000a900473ffffffffffffffffffffffffffffffffffffffff1673ffffffffffffffffffffffffffffffffffffffff1673ffffffffffffffffffffffffffffffffffffffff168152602001908152602001600020600084815260200190815260200160002090508060060154915050919050565b600260006003600084815260200190815260200160002060009054906101000a900473ffffffffffffffffffffffffffffffffffffffff1673ffffffffffffffffffffffffffffffffffffffff1673ffffffffffffffffffffffffffffffffffffffff168152602001908152602001600020600082815260200190815260200160002060040160009054906101000a900473ffffffffffffffffffffffffffffffffffffffff1673ffffffffffffffffffffffffffffffffffffffff163373ffffffffffffffffffffffffffffffffffffffff16146200096657600080fd5b6001600082815260200190815260200160002060009054906101000a900473ffffffffffffffffffffffffffffffffffffffff1673ffffffffffffffffffffffffffffffffffffffff1663892a0e426040518163ffffffff1660e01b81526004016020604051808303816000875af1158015620009e7573d6000803e3d6000fd5b505050506040513d601f19601f8201168201806040525081019062000a0d919062002307565b506000600260006003600085815260200190815260200160002060009054906101000a900473ffffffffffffffffffffffffffffffffffffffff1673ffffffffffffffffffffffffffffffffffffffff1673ffffffffffffffffffffffffffffffffffffffff1681526020019081526020016000206000838152602001908152602001600020905060028160070160006101000a81548160ff0219169083600381111562000ac05762000abf62001bdf565b5b02179055505050565b60006001600083815260200190815260200160002060009054906101000a900473ffffffffffffffffffffffffffffffffffffffff169050919050565b60026020528160005260406000206020528060005260406000206000915091505080600001549080600101805462000b3e9062001f7d565b80601f016020809104026020016040519081016040528092919081815260200182805462000b6c9062001f7d565b801562000bbd5780601f1062000b915761010080835404028352916020019162000bbd565b820191906000526020600020905b81548152906001019060200180831162000b9f57829003601f168201915b50505050509080600201805462000bd49062001f7d565b80601f016020809104026020016040519081016040528092919081815260200182805462000c029062001f7d565b801562000c535780601f1062000c275761010080835404028352916020019162000c53565b820191906000526020600020905b81548152906001019060200180831162000c3557829003601f168201915b5050505050908060030154908060040160009054906101000a900473ffffffffffffffffffffffffffffffffffffffff16908060050154908060060154908060070160009054906101000a900460ff16908060070160019054906101000a900460ff16905089565b600080600260006003600087815260200190815260200160002060009054906101000a900473ffffffffffffffffffffffffffffffffffffffff1673ffffffffffffffffffffffffffffffffffffffff1673ffffffffffffffffffffffffffffffffffffffff168152602001908152602001600020600085815260200190815260200160002090506003600085815260200190815260200160002060009054906101000a900473ffffffffffffffffffffffffffffffffffffffff1673ffffffffffffffffffffffffffffffffffffffff163373ffffffffffffffffffffffffffffffffffffffff160362000daf57600080fd5b6000600381111562000dc65762000dc562001bdf565b5b8160070160009054906101000a900460ff16600381111562000ded5762000dec62001bdf565b5b1462000df857600080fd5b806005015483111562000e5257828160050181905550338160040160006101000a81548173ffffffffffffffffffffffffffffffffffffffff021916908373ffffffffffffffffffffffffffffffffffffffff1602179055505b60405180606001604052803373ffffffffffffffffffffffffffffffffffffffff168152602001858152602001848152508160080160003373ffffffffffffffffffffffffffffffffffffffff1673ffffffffffffffffffffffffffffffffffffffff16815260200190815260200160002060008201518160000160006101000a81548173ffffffffffffffffffffffffffffffffffffffff021916908373ffffffffffffffffffffffffffffffffffffffff1602179055506020820151816001015560408201518160020155905050600181600601600082825462000f39919062001f13565b925050819055507f87f5b2fe112bf269d30fb8ca9dc0bde0afd0cc39258e13fafd75fe794795bf0e33858560405162000f759392919062002339565b60405180910390a1600191505092915050565b60008060006001600085815260200190815260200160002060009054906101000a900473ffffffffffffffffffffffffffffffffffffffff1673ffffffffffffffffffffffffffffffffffffffff1663f3d259046040518163ffffffff1660e01b8152600401606060405180830381865afa1580156200100c573d6000803e3d6000fd5b505050506040513d601f19601f820116820180604052508101906200103291906200238d565b9250925092509193909250565b6003600082815260200190815260200160002060009054906101000a900473ffffffffffffffffffffffffffffffffffffffff1673ffffffffffffffffffffffffffffffffffffffff163373ffffffffffffffffffffffffffffffffffffffff1614620010ab57600080fd5b6001600082815260200190815260200160002060009054906101000a900473ffffffffffffffffffffffffffffffffffffffff1673ffffffffffffffffffffffffffffffffffffffff16634bd7d0816040518163ffffffff1660e01b81526004016020604051808303816000875af11580156200112c573d6000803e3d6000fd5b505050506040513d601f19601f8201168201806040525081019062001152919062002307565b506000600260006003600085815260200190815260200160002060009054906101000a900473ffffffffffffffffffffffffffffffffffffffff1673ffffffffffffffffffffffffffffffffffffffff1673ffffffffffffffffffffffffffffffffffffffff1681526020019081526020016000206000838152602001908152602001600020905060008160070160006101000a81548160ff0219169083600381111562001205576200120462001bdf565b5b02179055505050565b600060608060008060008060008060026000600360008d815260200190815260200160002060009054906101000a900473ffffffffffffffffffffffffffffffffffffffff1673ffffffffffffffffffffffffffffffffffffffff1673ffffffffffffffffffffffffffffffffffffffff16815260200190815260200160002060008b815260200190815260200160002090508060000154816001018260020183600301548460070160009054906101000a900460ff168560070160019054906101000a900460ff1686600601548760050154868054620012ef9062001f7d565b80601f01602080910402602001604051908101604052809291908181526020018280546200131d9062001f7d565b80156200136e5780601f1062001342576101008083540402835291602001916200136e565b820191906000526020600020905b8154815290600101906020018083116200135057829003601f168201915b50505050509650858054620013839062001f7d565b80601f0160208091040260200160405190810160405280929190818152602001828054620013b19062001f7d565b8015620014025780601f10620013d65761010080835404028352916020019162001402565b820191906000526020600020905b815481529060010190602001808311620013e457829003601f168201915b505050505095509850985098509850985098509850985050919395975091939597565b6000600260006003600085815260200190815260200160002060009054906101000a900473ffffffffffffffffffffffffffffffffffffffff1673ffffffffffffffffffffffffffffffffffffffff1673ffffffffffffffffffffffffffffffffffffffff1681526020019081526020016000206000838152602001908152602001600020905060006003600084815260200190815260200160002060009054906101000a900473ffffffffffffffffffffffffffffffffffffffff1690503373ffffffffffffffffffffffffffffffffffffffff168260040160009054906101000a900473ffffffffffffffffffffffffffffffffffffffff1673ffffffffffffffffffffffffffffffffffffffff16146200154157600080fd5b34670de0b6b3a764000083600501546200155c9190620023e9565b146200159f576040517f08c379a0000000000000000000000000000000000000000000000000000000008152600401620015969062002484565b60405180910390fd5b60026003811115620015b657620015b562001bdf565b5b8260070160009054906101000a900460ff166003811115620015dd57620015dc62001bdf565b5b14620015e857600080fd5b600034843384604051620015fc90620017ad565b6200160a93929190620024a6565b6040518091039082f090508015801562001628573d6000803e3d6000fd5b509050806001600086815260200190815260200160002060006101000a81548173ffffffffffffffffffffffffffffffffffffffff021916908373ffffffffffffffffffffffffffffffffffffffff16021790555050505050565b60036020528060005260406000206000915054906101000a900473ffffffffffffffffffffffffffffffffffffffff1681565b60005481565b6000806000600260006003600087815260200190815260200160002060009054906101000a900473ffffffffffffffffffffffffffffffffffffffff1673ffffffffffffffffffffffffffffffffffffffff1673ffffffffffffffffffffffffffffffffffffffff168152602001908152602001600020600085815260200190815260200160002090508060040160009054906101000a900473ffffffffffffffffffffffffffffffffffffffff1681600501549250925050915091565b60016020528060005260406000206000915054906101000a900473ffffffffffffffffffffffffffffffffffffffff1681565b6106c680620024e483390190565b6000604051905090565b600080fd5b600080fd5b600080fd5b600080fd5b6000601f19601f8301169050919050565b7f4e487b7100000000000000000000000000000000000000000000000000000000600052604160045260246000fd5b6200182482620017d9565b810181811067ffffffffffffffff82111715620018465762001845620017ea565b5b80604052505050565b60006200185b620017bb565b905062001869828262001819565b919050565b600067ffffffffffffffff8211156200188c576200188b620017ea565b5b6200189782620017d9565b9050602081019050919050565b82818337600083830152505050565b6000620018ca620018c4846200186e565b6200184f565b905082815260208101848484011115620018e957620018e8620017d4565b5b620018f6848285620018a4565b509392505050565b600082601f830112620019165762001915620017cf565b5b813562001928848260208601620018b3565b91505092915050565b6000819050919050565b620019468162001931565b81146200195257600080fd5b50565b60008135905062001966816200193b565b92915050565b60008060008060808587031215620019895762001988620017c5565b5b600085013567ffffffffffffffff811115620019aa57620019a9620017ca565b5b620019b887828801620018fe565b945050602085013567ffffffffffffffff811115620019dc57620019db620017ca565b5b620019ea87828801620018fe565b9350506040620019fd8782880162001955565b925050606062001a108782880162001955565b91505092959194509250565b60006020828403121562001a355762001a34620017c5565b5b600062001a458482850162001955565b91505092915050565b62001a598162001931565b82525050565b600060208201905062001a76600083018462001a4e565b92915050565b600073ffffffffffffffffffffffffffffffffffffffff82169050919050565b600062001aa98262001a7c565b9050919050565b62001abb8162001a9c565b82525050565b600060208201905062001ad8600083018462001ab0565b92915050565b62001ae98162001a9c565b811462001af557600080fd5b50565b60008135905062001b098162001ade565b92915050565b6000806040838503121562001b295762001b28620017c5565b5b600062001b398582860162001af8565b925050602062001b4c8582860162001955565b9150509250929050565b600081519050919050565b600082825260208201905092915050565b60005b8381101562001b9257808201518184015260208101905062001b75565b60008484015250505050565b600062001bab8262001b56565b62001bb7818562001b61565b935062001bc981856020860162001b72565b62001bd481620017d9565b840191505092915050565b7f4e487b7100000000000000000000000000000000000000000000000000000000600052602160045260246000fd5b6004811062001c225762001c2162001bdf565b5b50565b600081905062001c358262001c0e565b919050565b600062001c478262001c25565b9050919050565b62001c598162001c3a565b82525050565b6002811062001c735762001c7262001bdf565b5b50565b600081905062001c868262001c5f565b919050565b600062001c988262001c76565b9050919050565b62001caa8162001c8b565b82525050565b60006101208201905062001cc8600083018c62001a4e565b818103602083015262001cdc818b62001b9e565b9050818103604083015262001cf2818a62001b9e565b905062001d03606083018962001a4e565b62001d12608083018862001ab0565b62001d2160a083018762001a4e565b62001d3060c083018662001a4e565b62001d3f60e083018562001c4e565b62001d4f61010083018462001c9f565b9a9950505050505050505050565b6000806040838503121562001d775762001d76620017c5565b5b600062001d878582860162001955565b925050602062001d9a8582860162001955565b9150509250929050565b60008115159050919050565b62001dbb8162001da4565b82525050565b600060208201905062001dd8600083018462001db0565b92915050565b600060608201905062001df5600083018662001ab0565b62001e04602083018562001ab0565b62001e13604083018462001db0565b949350505050565b60006101008201905062001e33600083018b62001a4e565b818103602083015262001e47818a62001b9e565b9050818103604083015262001e5d818962001b9e565b905062001e6e606083018862001a4e565b62001e7d608083018762001c4e565b62001e8c60a083018662001c9f565b62001e9b60c083018562001a4e565b62001eaa60e083018462001a4e565b9998505050505050505050565b600060408201905062001ece600083018562001ab0565b62001edd602083018462001a4e565b9392505050565b7f4e487b7100000000000000000000000000000000000000000000000000000000600052601160045260246000fd5b600062001f208262001931565b915062001f2d8362001931565b925082820190508082111562001f485762001f4762001ee4565b5b92915050565b7f4e487b7100000000000000000000000000000000000000000000000000000000600052602260045260246000fd5b6000600282049050600182168062001f9657607f821691505b60208210810362001fac5762001fab62001f4e565b5b50919050565b60008190508160005260206000209050919050565b60006020601f8301049050919050565b600082821b905092915050565b600060088302620020167fffffffffffffffffffffffffffffffffffffffffffffffffffffffffffffffff8262001fd7565b62002022868362001fd7565b95508019841693508086168417925050509392505050565b6000819050919050565b6000620020656200205f620020598462001931565b6200203a565b62001931565b9050919050565b6000819050919050565b620020818362002044565b6200209962002090826200206c565b84845462001fe4565b825550505050565b600090565b620020b0620020a1565b620020bd81848462002076565b505050565b5b81811015620020e557620020d9600082620020a6565b600181019050620020c3565b5050565b601f8211156200213457620020fe8162001fb2565b620021098462001fc7565b8101602085101562002119578190505b62002131620021288562001fc7565b830182620020c2565b50505b505050565b600082821c905092915050565b6000620021596000198460080262002139565b1980831691505092915050565b600062002174838362002146565b9150826002028217905092915050565b6200218f8262001b56565b67ffffffffffffffff811115620021ab57620021aa620017ea565b5b620021b7825462001f7d565b620021c4828285620020e9565b600060209050601f831160018114620021fc5760008415620021e7578287015190505b620021f3858262002166565b86555062002263565b601f1984166200220c8662001fb2565b60005b8281101562002236578489015182556001820191506020850194506020810190506200220f565b8683101562002256578489015162002252601f89168262002146565b8355505b6001600288020188555050505b505050505050565b600060a08201905062002282600083018862001a4e565b818103602083015262002296818762001b9e565b90508181036040830152620022ac818662001b9e565b9050620022bd606083018562001a4e565b620022cc608083018462001a4e565b9695505050505050565b620022e18162001da4565b8114620022ed57600080fd5b50565b6000815190506200230181620022d6565b92915050565b60006020828403121562002320576200231f620017c5565b5b60006200233084828501620022f0565b91505092915050565b600060608201905062002350600083018662001ab0565b6200235f602083018562001a4e565b6200236e604083018462001a4e565b949350505050565b600081519050620023878162001ade565b92915050565b600080600060608486031215620023a957620023a8620017c5565b5b6000620023b98682870162002376565b9350506020620023cc8682870162002376565b9250506040620023df86828701620022f0565b9150509250925092565b6000620023f68262001931565b9150620024038362001931565b9250828202620024138162001931565b915082820484148315176200242d576200242c62001ee4565b5b5092915050565b7f496e73756666696369656e7420616d6f756e7400000000000000000000000000600082015250565b60006200246c60138362001b61565b9150620024798262002434565b602082019050919050565b600060208201905081810360008301526200249f816200245d565b9050919050565b6000606082019050620024bd600083018662001a4e565b620024cc602083018562001ab0565b620024db604083018462001ab0565b94935050505056fe60806040526040516106c63803806106c683398181016040528101906100259190610171565b8260008190555081600160006101000a81548173ffffffffffffffffffffffffffffffffffffffff021916908373ffffffffffffffffffffffffffffffffffffffff16021790555080600260006101000a81548173ffffffffffffffffffffffffffffffffffffffff021916908373ffffffffffffffffffffffffffffffffffffffff160217905550346003819055506000600460006101000a81548160ff0219169083151502179055505050506101c4565b600080fd5b6000819050919050565b6100f0816100dd565b81146100fb57600080fd5b50565b60008151905061010d816100e7565b92915050565b600073ffffffffffffffffffffffffffffffffffffffff82169050919050565b600061013e82610113565b9050919050565b61014e81610133565b811461015957600080fd5b50565b60008151905061016b81610145565b92915050565b60008060006060848603121561018a576101896100d8565b5b6000610198868287016100fe565b93505060206101a98682870161015c565b92505060406101ba8682870161015c565b9150509250925092565b6104f3806101d36000396000f3fe608060405234801561001057600080fd5b50600436106100885760003560e01c8063aa8c217c1161005b578063aa8c217c14610105578063c5ce391114610123578063d1a52e3014610141578063f3d259041461015f57610088565b806308551a531461008d5780634bd7d081146100ab5780637150d8ae146100c9578063892a0e42146100e7575b600080fd5b61009561017f565b6040516100a29190610401565b60405180910390f35b6100b36101a5565b6040516100c09190610437565b60405180910390f35b6100d161025d565b6040516100de9190610401565b60405180910390f35b6100ef610283565b6040516100fc9190610437565b60405180910390f35b61010d61033b565b60405161011a919061046b565b60405180910390f35b61012b610341565b604051610138919061046b565b60405180910390f35b610149610347565b6040516101569190610437565b60405180910390f35b61016761035a565b60405161017693929190610486565b60405180910390f35b600260009054906101000a900473ffffffffffffffffffffffffffffffffffffffff1681565b6000600460009054906101000a900460ff16156101c157600080fd5b6003544710156101d057600080fd5b600160009054906101000a900473ffffffffffffffffffffffffffffffffffffffff1673ffffffffffffffffffffffffffffffffffffffff166108fc6003549081150290604051600060405180830381858888f1935050505015801561023a573d6000803e3d6000fd5b506001600460006101000a81548160ff0219169083151502179055506001905090565b600160009054906101000a900473ffffffffffffffffffffffffffffffffffffffff1681565b6000600460009054906101000a900460ff161561029f57600080fd5b6003544710156102ae57600080fd5b600260009054906101000a900473ffffffffffffffffffffffffffffffffffffffff1673ffffffffffffffffffffffffffffffffffffffff166108fc6003549081150290604051600060405180830381858888f19350505050158015610318573d6000803e3d6000fd5b506001600460006101000a81548160ff0219169083151502179055506001905090565b60035481565b60005481565b600460009054906101000a900460ff1681565b6000806000600160009054906101000a900473ffffffffffffffffffffffffffffffffffffffff16600260009054906101000a900473ffffffffffffffffffffffffffffffffffffffff16600460009054906101000a900460ff16925092509250909192565b600073ffffffffffffffffffffffffffffffffffffffff82169050919050565b60006103eb826103c0565b9050919050565b6103fb816103e0565b82525050565b600060208201905061041660008301846103f2565b92915050565b60008115159050919050565b6104318161041c565b82525050565b600060208201905061044c6000830184610428565b92915050565b6000819050919050565b61046581610452565b82525050565b6000602082019050610480600083018461045c565b92915050565b600060608201905061049b60008301866103f2565b6104a860208301856103f2565b6104b56040830184610428565b94935050505056fea26469706673582212200a8daa8205a04349e2bbd77e5649b69f0b4f6eced08f4c50535268470895535664736f6c63430008130033a2646970667358221220f6aac34ab517e243d5a6ad7e8826234b8c6c1099db9d1550c11abe11af5fa1c564736f6c63430008130033",
  "linkReferences": {},
  "deployedLinkReferences": {}
}